{
  "_format": "hh3-artifact-1",
  "contractName": "CreatorTokenFactory",
  "sourceName": "contracts/CreatorTokenFactory.sol",
  "abi": [
    {
      "inputs": [
        {
          "internalType": "address",
          "name": "_metricsManager",
          "type": "address"
        },
        {
          "internalType": "address",
          "name": "_tokenDeploymentFactory",
          "type": "address"
        }
      ],
      "stateMutability": "nonpayable",
      "type": "constructor"
    },
    {
      "anonymous": false,
      "inputs": [
        {
          "indexed": true,
          "internalType": "address",
          "name": "creator",
          "type": "address"
        },
        {
          "indexed": true,
          "internalType": "address",
          "name": "coinAddress",
          "type": "address"
        },
        {
          "indexed": false,
          "internalType": "uint256",
          "name": "intrinsicValue",
          "type": "uint256"
        },
        {
          "indexed": false,
          "internalType": "uint256",
          "name": "reserveRatio",
          "type": "uint256"
        }
      ],
      "name": "CreatorCoinLaunched",
      "type": "event"
    },
    {
      "anonymous": false,
      "inputs": [
        {
          "indexed": true,
          "internalType": "address",
          "name": "previousOwner",
          "type": "address"
        },
        {
          "indexed": true,
          "internalType": "address",
          "name": "newOwner",
          "type": "address"
        }
      ],
      "name": "OwnershipTransferred",
      "type": "event"
    },
    {
      "anonymous": false,
      "inputs": [
        {
          "indexed": true,
          "internalType": "address",
          "name": "creator",
          "type": "address"
        },
        {
          "indexed": false,
          "internalType": "uint256",
          "name": "amount",
          "type": "uint256"
        },
        {
          "indexed": false,
          "internalType": "uint256",
          "name": "perTokenAmount",
          "type": "uint256"
        }
      ],
      "name": "RevenueDistributed",
      "type": "event"
    },
    {
      "inputs": [],
      "name": "MIN_LIQUIDITY_LOCK",
      "outputs": [
        {
          "internalType": "uint256",
          "name": "",
          "type": "uint256"
        }
      ],
      "stateMutability": "view",
      "type": "function"
    },
    {
      "inputs": [],
      "name": "PLATFORM_FEE",
      "outputs": [
        {
          "internalType": "uint256",
          "name": "",
          "type": "uint256"
        }
      ],
      "stateMutability": "view",
      "type": "function"
    },
    {
      "inputs": [
        {
          "internalType": "uint256",
          "name": "",
          "type": "uint256"
        }
      ],
      "name": "allCreatorCoins",
      "outputs": [
        {
          "internalType": "address",
          "name": "",
          "type": "address"
        }
      ],
      "stateMutability": "view",
      "type": "function"
    },
    {
      "inputs": [
        {
          "internalType": "address",
          "name": "",
          "type": "address"
        }
      ],
      "name": "creatorCoins",
      "outputs": [
        {
          "internalType": "address",
          "name": "coinAddress",
          "type": "address"
        },
        {
          "internalType": "address",
          "name": "creator",
          "type": "address"
        },
        {
          "internalType": "uint256",
          "name": "createdAt",
          "type": "uint256"
        },
        {
          "internalType": "uint256",
          "name": "totalSupply",
          "type": "uint256"
        },
        {
          "internalType": "uint256",
          "name": "circulatingSupply",
          "type": "uint256"
        },
        {
          "internalType": "uint256",
          "name": "reserveRatio",
          "type": "uint256"
        },
        {
          "internalType": "uint256",
          "name": "intrinsicValue",
          "type": "uint256"
        },
        {
          "internalType": "bool",
          "name": "hasRevenueBacking",
          "type": "bool"
        },
        {
          "internalType": "uint256",
          "name": "liquidityLockUntil",
          "type": "uint256"
        }
      ],
      "stateMutability": "view",
      "type": "function"
    },
    {
      "inputs": [
        {
          "internalType": "address",
          "name": "creator",
          "type": "address"
        }
      ],
      "name": "distributeRevenue",
      "outputs": [],
      "stateMutability": "payable",
      "type": "function"
    },
    {
      "inputs": [],
      "name": "getAllCreatorCoins",
      "outputs": [
        {
          "internalType": "address[]",
          "name": "",
          "type": "address[]"
        }
      ],
      "stateMutability": "view",
      "type": "function"
    },
    {
      "inputs": [
        {
          "internalType": "address",
          "name": "creator",
          "type": "address"
        }
      ],
      "name": "getCreatorCoinInfo",
      "outputs": [
        {
          "internalType": "address",
          "name": "coinAddress",
          "type": "address"
        },
        {
          "internalType": "uint256",
          "name": "intrinsicValue",
          "type": "uint256"
        },
        {
          "internalType": "uint256",
          "name": "circulatingSupply",
          "type": "uint256"
        },
        {
          "internalType": "uint256",
          "name": "reserveRatio",
          "type": "uint256"
        },
        {
          "internalType": "bool",
          "name": "hasRevenueBacking",
          "type": "bool"
        }
      ],
      "stateMutability": "view",
      "type": "function"
    },
    {
      "inputs": [
        {
          "internalType": "address",
          "name": "creator",
          "type": "address"
        },
        {
          "internalType": "string",
          "name": "name",
          "type": "string"
        },
        {
          "internalType": "string",
          "name": "symbol",
          "type": "string"
        },
        {
          "internalType": "uint256",
          "name": "initialSupply",
          "type": "uint256"
        }
      ],
      "name": "launchCreatorCoin",
      "outputs": [
        {
          "internalType": "address",
          "name": "",
          "type": "address"
        }
      ],
      "stateMutability": "nonpayable",
      "type": "function"
    },
    {
      "inputs": [],
      "name": "metricsManager",
      "outputs": [
        {
          "internalType": "contract ICreatorMetricsManager",
          "name": "",
          "type": "address"
        }
      ],
      "stateMutability": "view",
      "type": "function"
    },
    {
      "inputs": [],
      "name": "owner",
      "outputs": [
        {
          "internalType": "address",
          "name": "",
          "type": "address"
        }
      ],
      "stateMutability": "view",
      "type": "function"
    },
    {
      "inputs": [
        {
          "internalType": "address",
          "name": "creator",
          "type": "address"
        }
      ],
      "name": "pauseTrading",
      "outputs": [],
      "stateMutability": "nonpayable",
      "type": "function"
    },
    {
      "inputs": [
        {
          "internalType": "address",
          "name": "creator",
          "type": "address"
        },
        {
          "internalType": "uint256",
          "name": "amount",
          "type": "uint256"
        }
      ],
      "name": "releaseMoreTokens",
      "outputs": [],
      "stateMutability": "nonpayable",
      "type": "function"
    },
    {
      "inputs": [],
      "name": "renounceOwnership",
      "outputs": [],
      "stateMutability": "nonpayable",
      "type": "function"
    },
    {
      "inputs": [
        {
          "internalType": "address",
          "name": "_metricsManager",
          "type": "address"
        }
      ],
      "name": "setMetricsManager",
      "outputs": [],
      "stateMutability": "nonpayable",
      "type": "function"
    },
    {
      "inputs": [
        {
          "internalType": "address",
          "name": "_tokenDeploymentFactory",
          "type": "address"
        }
      ],
      "name": "setTokenDeploymentFactory",
      "outputs": [],
      "stateMutability": "nonpayable",
      "type": "function"
    },
    {
      "inputs": [],
      "name": "tokenDeploymentFactory",
      "outputs": [
        {
          "internalType": "contract ITokenDeploymentFactory",
          "name": "",
          "type": "address"
        }
      ],
      "stateMutability": "view",
      "type": "function"
    },
    {
      "inputs": [
        {
          "internalType": "address",
          "name": "newOwner",
          "type": "address"
        }
      ],
      "name": "transferOwnership",
      "outputs": [],
      "stateMutability": "nonpayable",
      "type": "function"
    },
    {
      "inputs": [
        {
          "internalType": "address",
          "name": "creator",
          "type": "address"
        }
      ],
      "name": "unpauseTrading",
      "outputs": [],
      "stateMutability": "nonpayable",
      "type": "function"
    }
  ],
  "bytecode": "0x608060405234801561000f575f5ffd5b5060405161164838038061164883398101604081905261002e916100d8565b60015f5561003b3361006c565b600280546001600160a01b039384166001600160a01b03199182161790915560038054929093169116179055610109565b600180546001600160a01b038381166001600160a01b0319831681179093556040519116919082907f8be0079c531659141344cd1fd0a4f28419497f9722a3daafe3b4186f6b6457e0905f90a35050565b80516001600160a01b03811681146100d3575f5ffd5b919050565b5f5f604083850312156100e9575f5ffd5b6100f2836100bd565b9150610100602084016100bd565b90509250929050565b611532806101165f395ff3fe608060405260043610610105575f3560e01c806387eebebb11610092578063a45d08b311610062578063a45d08b314610345578063c4a2abd514610364578063c718cc3e14610451578063f2fde38b14610470578063fa8d52921461048f575f5ffd5b806387eebebb146102c95780638c849f17146102e85780638da5cb5b146103095780638fc4140d14610326575f5ffd5b80633ec23d0f116100d85780633ec23d0f1461024d57806341fe8c1a1461026057806366228d051461027f578063715018a61461029657806384ea65af146102aa575f5ffd5b80630c8ff282146101095780632df5e02d146101d35780632f8d2b29146101f457806334fbc9a11461022b575b5f5ffd5b348015610114575f5ffd5b5061017d61012336600461117e565b600460208190525f91825260409091208054600182015460028301546003840154948401546005850154600686015460078701546008909701546001600160a01b03968716989590961696939592939192909160ff169089565b604080516001600160a01b039a8b1681529990981660208a0152968801959095526060870193909352608086019190915260a085015260c0840152151560e0830152610100820152610120015b60405180910390f35b3480156101de575f5ffd5b506101f26101ed36600461117e565b6104ae565b005b3480156101ff575f5ffd5b5061021361020e3660046111a0565b6104d8565b6040516001600160a01b0390911681526020016101ca565b348015610236575f5ffd5b5061023f60fa81565b6040519081526020016101ca565b6101f261025b36600461117e565b610500565b34801561026b575f5ffd5b5061021361027a366004611256565b61074c565b34801561028a575f5ffd5b5061023f6301e1338081565b3480156102a1575f5ffd5b506101f2610bc9565b3480156102b5575f5ffd5b506101f26102c436600461117e565b610bdc565b3480156102d4575f5ffd5b50600254610213906001600160a01b031681565b3480156102f3575f5ffd5b506102fc610c83565b6040516101ca91906112d4565b348015610314575f5ffd5b506001546001600160a01b0316610213565b348015610331575f5ffd5b506101f261034036600461117e565b610ce3565b348015610350575f5ffd5b506101f261035f36600461131f565b610d70565b34801561036f575f5ffd5b5061041d61037e36600461117e565b6001600160a01b039081165f9081526004602081815260409283902083516101208101855281548616808252600183015490961692810192909252600281015493820193909352600383015460608201529082015460808201819052600583015460a08301819052600684015460c08401819052600785015460ff16151560e08501819052600890950154610100909401939093529394919390929091565b604080516001600160a01b03909616865260208601949094529284019190915260608301521515608082015260a0016101ca565b34801561045c575f5ffd5b506101f261046b36600461117e565b610f93565b34801561047b575f5ffd5b506101f261048a36600461117e565b610fbd565b34801561049a575f5ffd5b50600354610213906001600160a01b031681565b6104b6611033565b600380546001600160a01b0319166001600160a01b0392909216919091179055565b600581815481106104e7575f80fd5b5f918252602090912001546001600160a01b0316905081565b61050861108d565b6001600160a01b038082165f908152600460205260409020548291166105495760405162461bcd60e51b815260040161054090611349565b60405180910390fd5b336001600160a01b038316146105a15760405162461bcd60e51b815260206004820152601b60248201527f4f6e6c792063726561746f722063616e206469737472696275746500000000006044820152606401610540565b5f34116105f05760405162461bcd60e51b815260206004820152601860248201527f4e6f20726576656e756520746f206469737472696275746500000000000000006044820152606401610540565b6001600160a01b0382165f908152600460205260409020600781015460ff1661065b5760405162461bcd60e51b815260206004820152601b60248201527f526576656e7565206261636b696e67206e6f7420656e61626c656400000000006044820152606401610540565b5f61067361271061066d3460fa6110e4565b906110f8565b90505f6106803483611103565b90505f61069a8460040154836110f890919063ffffffff16565b84546040516302cfef0f60e51b8152600481018390529192506001600160a01b0316906359fde1e09084906024015f604051808303818588803b1580156106df575f5ffd5b505af11580156106f1573d5f5f3e3d5ffd5b505060408051868152602081018690526001600160a01b038b1694507f23c66d89e0135aaea90eae0a65f26e5ce7b564834613ad71f4c7ff723354f13e935001905060405180910390a2505050505061074960015f55565b50565b5f610755611033565b6001600160a01b038581165f9081526004602052604090205416156107b25760405162461bcd60e51b8152602060048201526013602482015272436f696e20616c72656164792065786973747360681b6044820152606401610540565b600254604051636461f21b60e11b81526001600160a01b0387811660048301529091169063c8c3e43690602401602060405180830381865afa1580156107fa573d5f5f3e3d5ffd5b505050506040513d601f19601f8201168201806040525081019061081e9190611374565b6108615760405162461bcd60e51b8152602060048201526014602482015273496e73756666696369656e74206d65747269637360601b6044820152606401610540565b6002546040516304b1c64760e21b81526001600160a01b0387811660048301525f9216906312c7191c90602401602060405180830381865afa1580156108a9573d5f5f3e3d5ffd5b505050506040513d601f19601f820116820180604052508101906108cd9190611393565b90505f811161091e5760405162461bcd60e51b815260206004820152601a60248201527f496e73756666696369656e742076616c7565206d6574726963730000000000006044820152606401610540565b6003546040516308f807fb60e21b81525f916001600160a01b0316906323e01fec90610956908a908a908a9030908b906004016113d8565b6020604051808303815f875af1158015610972573d5f5f3e3d5ffd5b505050506040513d601f19601f82011682018060405250810190610996919061142b565b60025460405163010c282160e41b81526001600160a01b038a811660048301529293505f92909116906310c282109060240160c060405180830381865afa1580156109e3573d5f5f3e3d5ffd5b505050506040513d601f19601f82011682018060405250810190610a079190611446565b50505092505050604051806101200160405280836001600160a01b03168152602001896001600160a01b03168152602001428152602001868152602001610a586004886110f890919063ffffffff16565b81526020015f8311610a6c576103e8610a70565b6107d05b61ffff16815260208101859052670de0b6b3a76400008310156040820152606001610a9f6301e13380426114a0565b90526001600160a01b038981165f81815260046020818152604092839020865181546001600160a01b031990811691881691909117825587830151600180840180548416928a16929092179091558886015160028401556060890151600384015560808901519483019490945560a0880151600580840191825560c08a0151600685015560e08a015160078501805460ff19169115159190911790556101009099015160089093019290925587549384019097557f036b6384b5eca791c62761152d0c79bb0604c104a5fb6f4eb0703f3154bb3db0909201805490961694881694851790955554815188815294850152919290917fd79742576094af793d393f0b081fe217a75d2bcb507609f7bc58d57345a8ac4f910160405180910390a3509695505050505050565b610bd1611033565b610bda5f61110e565b565b610be4611033565b6001600160a01b038082165f90815260046020526040902054829116610c1c5760405162461bcd60e51b815260040161054090611349565b6001600160a01b038083165f908152600460208190526040808320548151630818f1b760e11b81529151941693631031e36e9382840193909282900301818387803b158015610c69575f5ffd5b505af1158015610c7b573d5f5f3e3d5ffd5b505050505050565b60606005805480602002602001604051908101604052809291908181526020018280548015610cd957602002820191905f5260205f20905b81546001600160a01b03168152600190910190602001808311610cbb575b5050505050905090565b610ceb611033565b6001600160a01b038082165f90815260046020526040902054829116610d235760405162461bcd60e51b815260040161054090611349565b6001600160a01b038083165f9081526004602081905260408083205481516322b0346960e11b8152915194169363456068d29382840193909282900301818387803b158015610c69575f5ffd5b610d78611033565b6001600160a01b038083165f90815260046020526040902054839116610db05760405162461bcd60e51b815260040161054090611349565b6001600160a01b0383165f9081526004602081905260408220808201546003820154919392610de592909161066d9190611103565b905080841115610e375760405162461bcd60e51b815260206004820152601860248201527f52656c6561736520616d6f756e7420746f6f206c6172676500000000000000006044820152606401610540565b6002546040516304b1c64760e21b81526001600160a01b0387811660048301525f9216906312c7191c90602401602060405180830381865afa158015610e7f573d5f5f3e3d5ffd5b505050506040513d601f19601f82011682018060405250810190610ea39190611393565b6006840154909150610ebb606461066d8360786110e4565b821015610f0a5760405162461bcd60e51b815260206004820152601f60248201527f496e73756666696369656e742067726f77746820666f722072656c65617365006044820152606401610540565b6004840154610f19908761115f565b6004858101919091556006850183905584546040516340c10f1960e01b81526001600160a01b038a811693820193909352602481018990529116906340c10f19906044015f604051808303815f87803b158015610f74575f5ffd5b505af1158015610f86573d5f5f3e3d5ffd5b5050505050505050505050565b610f9b611033565b600280546001600160a01b0319166001600160a01b0392909216919091179055565b610fc5611033565b6001600160a01b03811661102a5760405162461bcd60e51b815260206004820152602660248201527f4f776e61626c653a206e6577206f776e657220697320746865207a65726f206160448201526564647265737360d01b6064820152608401610540565b6107498161110e565b6001546001600160a01b03163314610bda5760405162461bcd60e51b815260206004820181905260248201527f4f776e61626c653a2063616c6c6572206973206e6f7420746865206f776e65726044820152606401610540565b60025f54036110de5760405162461bcd60e51b815260206004820152601f60248201527f5265656e7472616e637947756172643a207265656e7472616e742063616c6c006044820152606401610540565b60025f55565b5f6110ef82846114b3565b90505b92915050565b5f6110ef82846114ca565b5f6110ef82846114e9565b600180546001600160a01b038381166001600160a01b0319831681179093556040519116919082907f8be0079c531659141344cd1fd0a4f28419497f9722a3daafe3b4186f6b6457e0905f90a35050565b5f6110ef82846114a0565b6001600160a01b0381168114610749575f5ffd5b5f6020828403121561118e575f5ffd5b81356111998161116a565b9392505050565b5f602082840312156111b0575f5ffd5b5035919050565b634e487b7160e01b5f52604160045260245ffd5b5f82601f8301126111da575f5ffd5b813567ffffffffffffffff8111156111f4576111f46111b7565b604051601f8201601f19908116603f0116810167ffffffffffffffff81118282101715611223576112236111b7565b60405281815283820160200185101561123a575f5ffd5b816020850160208301375f918101602001919091529392505050565b5f5f5f5f60808587031215611269575f5ffd5b84356112748161116a565b9350602085013567ffffffffffffffff81111561128f575f5ffd5b61129b878288016111cb565b935050604085013567ffffffffffffffff8111156112b7575f5ffd5b6112c3878288016111cb565b949793965093946060013593505050565b602080825282518282018190525f918401906040840190835b818110156113145783516001600160a01b03168352602093840193909201916001016112ed565b509095945050505050565b5f5f60408385031215611330575f5ffd5b823561133b8161116a565b946020939093013593505050565b60208082526011908201527010dc99585d1bdc881b9bdd08199bdd5b99607a1b604082015260600190565b5f60208284031215611384575f5ffd5b81518015158114611199575f5ffd5b5f602082840312156113a3575f5ffd5b5051919050565b5f81518084528060208401602086015e5f602082860101526020601f19601f83011685010191505092915050565b6001600160a01b038616815260a0602082018190525f906113fb908301876113aa565b828103604084015261140d81876113aa565b6001600160a01b039590951660608401525050608001529392505050565b5f6020828403121561143b575f5ffd5b81516111998161116a565b5f5f5f5f5f5f60c0878903121561145b575f5ffd5b50508451602086015160408701516060880151608089015160a090990151939a929950909790965094509092509050565b634e487b7160e01b5f52601160045260245ffd5b808201808211156110f2576110f261148c565b80820281158282048414176110f2576110f261148c565b5f826114e457634e487b7160e01b5f52601260045260245ffd5b500490565b818103818111156110f2576110f261148c56fea2646970667358221220c000125a289572be15c0e9127199b19787143d902357df166ec329bc985431d364736f6c634300081c0033",
  "linkReferences": {},
  "deployedLinkReferences": {},
  "immutableReferences": {},
  "inputSourceName": "project/contracts/CreatorTokenFactory.sol",
  "buildInfoId": "solc-0_8_28-2e033019e343b2d696b6e209463e32e287703a78"
}