{
  "_format": "hh3-artifact-1",
  "contractName": "CreatorMetricsManager",
  "sourceName": "contracts/CreatorMetricsManager.sol",
  "abi": [
    {
      "inputs": [],
      "stateMutability": "nonpayable",
      "type": "constructor"
    },
    {
      "anonymous": false,
      "inputs": [
        {
          "indexed": true,
          "internalType": "address",
          "name": "creator",
          "type": "address"
        },
        {
          "indexed": false,
          "internalType": "uint256",
          "name": "streams",
          "type": "uint256"
        },
        {
          "indexed": false,
          "internalType": "uint256",
          "name": "followers",
          "type": "uint256"
        },
        {
          "indexed": false,
          "internalType": "uint256",
          "name": "revenue",
          "type": "uint256"
        },
        {
          "indexed": false,
          "internalType": "uint256",
          "name": "newIntrinsicValue",
          "type": "uint256"
        }
      ],
      "name": "MetricsUpdated",
      "type": "event"
    },
    {
      "anonymous": false,
      "inputs": [
        {
          "indexed": true,
          "internalType": "address",
          "name": "previousOwner",
          "type": "address"
        },
        {
          "indexed": true,
          "internalType": "address",
          "name": "newOwner",
          "type": "address"
        }
      ],
      "name": "OwnershipTransferred",
      "type": "event"
    },
    {
      "inputs": [
        {
          "internalType": "address",
          "name": "oracle",
          "type": "address"
        }
      ],
      "name": "addAuthorizedOracle",
      "outputs": [],
      "stateMutability": "nonpayable",
      "type": "function"
    },
    {
      "inputs": [
        {
          "internalType": "address",
          "name": "",
          "type": "address"
        }
      ],
      "name": "authorizedOracles",
      "outputs": [
        {
          "internalType": "bool",
          "name": "",
          "type": "bool"
        }
      ],
      "stateMutability": "view",
      "type": "function"
    },
    {
      "inputs": [
        {
          "internalType": "address",
          "name": "creator",
          "type": "address"
        }
      ],
      "name": "calculateIntrinsicValue",
      "outputs": [
        {
          "internalType": "uint256",
          "name": "",
          "type": "uint256"
        }
      ],
      "stateMutability": "view",
      "type": "function"
    },
    {
      "inputs": [
        {
          "internalType": "address",
          "name": "creator",
          "type": "address"
        }
      ],
      "name": "calculateVerificationLevel",
      "outputs": [
        {
          "internalType": "uint256",
          "name": "",
          "type": "uint256"
        }
      ],
      "stateMutability": "view",
      "type": "function"
    },
    {
      "inputs": [
        {
          "internalType": "address",
          "name": "",
          "type": "address"
        }
      ],
      "name": "creatorMetrics",
      "outputs": [
        {
          "internalType": "uint256",
          "name": "monthlyStreams",
          "type": "uint256"
        },
        {
          "internalType": "uint256",
          "name": "followers",
          "type": "uint256"
        },
        {
          "internalType": "uint256",
          "name": "monthlyRevenue",
          "type": "uint256"
        },
        {
          "internalType": "uint256",
          "name": "engagementScore",
          "type": "uint256"
        },
        {
          "internalType": "uint256",
          "name": "lastUpdated",
          "type": "uint256"
        },
        {
          "internalType": "uint256",
          "name": "verificationLevel",
          "type": "uint256"
        }
      ],
      "stateMutability": "view",
      "type": "function"
    },
    {
      "inputs": [
        {
          "internalType": "address",
          "name": "creator",
          "type": "address"
        }
      ],
      "name": "meetsLaunchRequirements",
      "outputs": [
        {
          "internalType": "bool",
          "name": "",
          "type": "bool"
        }
      ],
      "stateMutability": "view",
      "type": "function"
    },
    {
      "inputs": [],
      "name": "owner",
      "outputs": [
        {
          "internalType": "address",
          "name": "",
          "type": "address"
        }
      ],
      "stateMutability": "view",
      "type": "function"
    },
    {
      "inputs": [
        {
          "internalType": "address",
          "name": "oracle",
          "type": "address"
        }
      ],
      "name": "removeAuthorizedOracle",
      "outputs": [],
      "stateMutability": "nonpayable",
      "type": "function"
    },
    {
      "inputs": [],
      "name": "renounceOwnership",
      "outputs": [],
      "stateMutability": "nonpayable",
      "type": "function"
    },
    {
      "inputs": [
        {
          "internalType": "address",
          "name": "newOwner",
          "type": "address"
        }
      ],
      "name": "transferOwnership",
      "outputs": [],
      "stateMutability": "nonpayable",
      "type": "function"
    },
    {
      "inputs": [
        {
          "internalType": "address",
          "name": "creator",
          "type": "address"
        },
        {
          "internalType": "uint256",
          "name": "monthlyStreams",
          "type": "uint256"
        },
        {
          "internalType": "uint256",
          "name": "followers",
          "type": "uint256"
        },
        {
          "internalType": "uint256",
          "name": "monthlyRevenue",
          "type": "uint256"
        },
        {
          "internalType": "uint256",
          "name": "engagementScore",
          "type": "uint256"
        }
      ],
      "name": "updateCreatorMetrics",
      "outputs": [],
      "stateMutability": "nonpayable",
      "type": "function"
    }
  ],
  "bytecode": "0x6080604052348015600e575f5ffd5b50601633601a565b6069565b5f80546001600160a01b038381166001600160a01b0319831681178455604051919092169283917f8be0079c531659141344cd1fd0a4f28419497f9722a3daafe3b4186f6b6457e09190a35050565b610927806100765f395ff3fe608060405234801561000f575f5ffd5b50600436106100a6575f3560e01c80638da5cb5b1161006e5780638da5cb5b1461018f5780639a5eff47146101a9578063a37202a8146101bc578063b21e314a146101cf578063c8c3e436146101e2578063f2fde38b146101f5575f5ffd5b806310c28210146100aa57806312c7191c1461011f57806361c992a314610140578063715018a61461017257806388205b571461017c575b5f5ffd5b6100ed6100b836600461083d565b600160208190525f91825260409091208054918101546002820154600383015460048401546005909401549293919290919086565b604080519687526020870195909552938501929092526060840152608083015260a082015260c0015b60405180910390f35b61013261012d36600461083d565b610208565b604051908152602001610116565b61016261014e36600461083d565b60026020525f908152604090205460ff1681565b6040519015158152602001610116565b61017a61037b565b005b61017a61018a36600461083d565b61038e565b5f546040516001600160a01b039091168152602001610116565b6101326101b736600461083d565b6103b6565b61017a6101ca36600461083d565b6104b5565b61017a6101dd366004610856565b6104e0565b6101626101f036600461083d565b61065d565b61017a61020336600461083d565b6106d7565b6001600160a01b0381165f908152600160208181526040808420815160c0810183528154808252948201549381019390935260028101549183019190915260038101546060830152600481015460808301526005015460a082015290820361027257505f92915050565b80515f9061029490660aa87bee5380009061028e90600c610750565b90610750565b90505f6102af6064846020015161076490919063ffffffff16565b6102bb906103e86108a8565b90506102d36103e86102cd8484610750565b90610764565b6040840151909250156103115760408301515f906102f290600c610750565b90505f610300826003610750565b905061030c848261076f565b935050505b5f61032e60646102cd86606001518661075090919063ffffffff16565b905061033a838261076f565b92505f61036460646102cd61035d600a8960a0015161075090919063ffffffff16565b8790610750565b9050610370848261076f565b979650505050505050565b61038361077a565b61038c5f6107d3565b565b61039661077a565b6001600160a01b03165f908152600260205260409020805460ff19169055565b6001600160a01b0381165f908152600160208181526040808420815160c081018352815481529381015492840183905260028101549184019190915260038101546060840152600481015460808401526005015460a0830152620f424011801590610425575080516298968011155b156104335750600492915050565b6207a12081602001511015801561044e57508051624c4b4011155b1561045c5750600392915050565b620186a081602001511015801561047757508051620f424011155b156104855750600292915050565b6161a881602001511015801561049f575080516203d09011155b156104ad5750600192915050565b505f92915050565b6104bd61077a565b6001600160a01b03165f908152600260205260409020805460ff19166001179055565b335f9081526002602052604090205460ff1661053b5760405162461bcd60e51b81526020600482015260156024820152744e6f7420617574686f72697a6564206f7261636c6560581b60448201526064015b60405180910390fd5b6001600160a01b0385165f9081526001602052604090206004810154156105c8575f8511801561056b5750805415155b156105c85780545f9061057f906005610750565b9050808611156105c65760405162461bcd60e51b81526020600482015260126024820152710aadce4cac2d8d2e6e8d2c640cee4deeee8d60731b6044820152606401610532565b505b8481556001810184905560028101839055600381018290554260048201556105ef866103b6565b60058201555f6105fe87610208565b6040805188815260208101889052908101869052606081018290529091506001600160a01b038816907f5e37183edd2fe1914ed95c56ba6c9546abed204fe0d289d72607a09af9baec319060800160405180910390a250505050505050565b6001600160a01b0381165f908152600160208181526040808420815160c0810183528154808252948201549381019390935260028101549183019190915260038101546060830152600481015460808301526005015460a08201529061c350118015906106d05750611388816020015110155b9392505050565b6106df61077a565b6001600160a01b0381166107445760405162461bcd60e51b815260206004820152602660248201527f4f776e61626c653a206e6577206f776e657220697320746865207a65726f206160448201526564647265737360d01b6064820152608401610532565b61074d816107d3565b50565b5f61075b82846108bb565b90505b92915050565b5f61075b82846108d2565b5f61075b82846108a8565b5f546001600160a01b0316331461038c5760405162461bcd60e51b815260206004820181905260248201527f4f776e61626c653a2063616c6c6572206973206e6f7420746865206f776e65726044820152606401610532565b5f80546001600160a01b038381166001600160a01b0319831681178455604051919092169283917f8be0079c531659141344cd1fd0a4f28419497f9722a3daafe3b4186f6b6457e09190a35050565b80356001600160a01b0381168114610838575f5ffd5b919050565b5f6020828403121561084d575f5ffd5b61075b82610822565b5f5f5f5f5f60a0868803121561086a575f5ffd5b61087386610822565b97602087013597506040870135966060810135965060800135945092505050565b634e487b7160e01b5f52601160045260245ffd5b8082018082111561075e5761075e610894565b808202811582820484141761075e5761075e610894565b5f826108ec57634e487b7160e01b5f52601260045260245ffd5b50049056fea264697066735822122088860d50c65612a560931a5c9c84529fcc68485900d731501fd037e52f1f5be464736f6c634300081c0033",
  "linkReferences": {},
  "deployedLinkReferences": {},
  "immutableReferences": {},
  "inputSourceName": "project/contracts/CreatorMetricsManager.sol",
  "buildInfoId": "solc-0_8_28-7d5376b93f1a7be92d0b3ff29a488142ecf94697"
}