{
  "_format": "hh3-artifact-1",
  "contractName": "IntegratedCreatorDEX",
  "sourceName": "contracts/IntegratedCreatorDEX.sol",
  "abi": [
    {
      "inputs": [
        {
          "internalType": "address",
          "name": "_creatorTokenFactory",
          "type": "address"
        }
      ],
      "stateMutability": "nonpayable",
      "type": "constructor"
    },
    {
      "anonymous": false,
      "inputs": [
        {
          "indexed": true,
          "internalType": "address",
          "name": "creatorToken",
          "type": "address"
        },
        {
          "indexed": false,
          "internalType": "uint256",
          "name": "priceChange",
          "type": "uint256"
        }
      ],
      "name": "CircuitBreakerTriggered",
      "type": "event"
    },
    {
      "anonymous": false,
      "inputs": [
        {
          "indexed": true,
          "internalType": "address",
          "name": "creatorToken",
          "type": "address"
        },
        {
          "indexed": true,
          "internalType": "address",
          "name": "provider",
          "type": "address"
        },
        {
          "indexed": false,
          "internalType": "uint256",
          "name": "filAmount",
          "type": "uint256"
        },
        {
          "indexed": false,
          "internalType": "uint256",
          "name": "tokenAmount",
          "type": "uint256"
        },
        {
          "indexed": false,
          "internalType": "uint256",
          "name": "liquidityMinted",
          "type": "uint256"
        }
      ],
      "name": "LiquidityAdded",
      "type": "event"
    },
    {
      "anonymous": false,
      "inputs": [
        {
          "indexed": true,
          "internalType": "address",
          "name": "creatorToken",
          "type": "address"
        },
        {
          "indexed": true,
          "internalType": "address",
          "name": "provider",
          "type": "address"
        },
        {
          "indexed": false,
          "internalType": "uint256",
          "name": "filAmount",
          "type": "uint256"
        },
        {
          "indexed": false,
          "internalType": "uint256",
          "name": "tokenAmount",
          "type": "uint256"
        },
        {
          "indexed": false,
          "internalType": "uint256",
          "name": "liquidityBurned",
          "type": "uint256"
        }
      ],
      "name": "LiquidityRemoved",
      "type": "event"
    },
    {
      "anonymous": false,
      "inputs": [
        {
          "indexed": true,
          "internalType": "address",
          "name": "previousOwner",
          "type": "address"
        },
        {
          "indexed": true,
          "internalType": "address",
          "name": "newOwner",
          "type": "address"
        }
      ],
      "name": "OwnershipTransferred",
      "type": "event"
    },
    {
      "anonymous": false,
      "inputs": [
        {
          "indexed": true,
          "internalType": "address",
          "name": "creatorToken",
          "type": "address"
        },
        {
          "indexed": true,
          "internalType": "address",
          "name": "creator",
          "type": "address"
        }
      ],
      "name": "PoolCreated",
      "type": "event"
    },
    {
      "anonymous": false,
      "inputs": [
        {
          "indexed": true,
          "internalType": "address",
          "name": "creatorToken",
          "type": "address"
        },
        {
          "indexed": true,
          "internalType": "address",
          "name": "trader",
          "type": "address"
        },
        {
          "indexed": false,
          "internalType": "uint256",
          "name": "filAmount",
          "type": "uint256"
        },
        {
          "indexed": false,
          "internalType": "uint256",
          "name": "tokenAmount",
          "type": "uint256"
        },
        {
          "indexed": false,
          "internalType": "bool",
          "name": "isBuy",
          "type": "bool"
        },
        {
          "indexed": false,
          "internalType": "uint256",
          "name": "price",
          "type": "uint256"
        }
      ],
      "name": "TokensTraded",
      "type": "event"
    },
    {
      "inputs": [
        {
          "internalType": "address",
          "name": "creatorToken",
          "type": "address"
        },
        {
          "internalType": "uint256",
          "name": "tokenAmount",
          "type": "uint256"
        },
        {
          "internalType": "uint256",
          "name": "lockDuration",
          "type": "uint256"
        }
      ],
      "name": "addLiquidity",
      "outputs": [
        {
          "internalType": "uint256",
          "name": "liquidityMinted",
          "type": "uint256"
        }
      ],
      "stateMutability": "payable",
      "type": "function"
    },
    {
      "inputs": [
        {
          "internalType": "address",
          "name": "creatorToken",
          "type": "address"
        },
        {
          "internalType": "uint256",
          "name": "minTokensOut",
          "type": "uint256"
        }
      ],
      "name": "buyTokens",
      "outputs": [
        {
          "internalType": "uint256",
          "name": "tokensOut",
          "type": "uint256"
        }
      ],
      "stateMutability": "payable",
      "type": "function"
    },
    {
      "inputs": [],
      "name": "circuitBreakerCooldown",
      "outputs": [
        {
          "internalType": "uint256",
          "name": "",
          "type": "uint256"
        }
      ],
      "stateMutability": "view",
      "type": "function"
    },
    {
      "inputs": [
        {
          "internalType": "address",
          "name": "creatorToken",
          "type": "address"
        }
      ],
      "name": "createPool",
      "outputs": [
        {
          "internalType": "bool",
          "name": "",
          "type": "bool"
        }
      ],
      "stateMutability": "nonpayable",
      "type": "function"
    },
    {
      "inputs": [],
      "name": "creatorTokenFactory",
      "outputs": [
        {
          "internalType": "contract ICreatorTokenFactory",
          "name": "",
          "type": "address"
        }
      ],
      "stateMutability": "view",
      "type": "function"
    },
    {
      "inputs": [
        {
          "internalType": "address",
          "name": "creatorToken",
          "type": "address"
        }
      ],
      "name": "getCurrentPrice",
      "outputs": [
        {
          "internalType": "uint256",
          "name": "",
          "type": "uint256"
        }
      ],
      "stateMutability": "view",
      "type": "function"
    },
    {
      "inputs": [
        {
          "internalType": "address",
          "name": "creatorToken",
          "type": "address"
        },
        {
          "internalType": "uint256",
          "name": "tokenIn",
          "type": "uint256"
        }
      ],
      "name": "getFilOut",
      "outputs": [
        {
          "internalType": "uint256",
          "name": "",
          "type": "uint256"
        }
      ],
      "stateMutability": "view",
      "type": "function"
    },
    {
      "inputs": [
        {
          "internalType": "address",
          "name": "creatorToken",
          "type": "address"
        }
      ],
      "name": "getPoolInfo",
      "outputs": [
        {
          "internalType": "uint256",
          "name": "filReserve",
          "type": "uint256"
        },
        {
          "internalType": "uint256",
          "name": "tokenReserve",
          "type": "uint256"
        },
        {
          "internalType": "uint256",
          "name": "totalLiquidity",
          "type": "uint256"
        },
        {
          "internalType": "uint256",
          "name": "currentPrice",
          "type": "uint256"
        },
        {
          "internalType": "bool",
          "name": "isActive",
          "type": "bool"
        }
      ],
      "stateMutability": "view",
      "type": "function"
    },
    {
      "inputs": [
        {
          "internalType": "address",
          "name": "creatorToken",
          "type": "address"
        },
        {
          "internalType": "uint256",
          "name": "filIn",
          "type": "uint256"
        }
      ],
      "name": "getTokensOut",
      "outputs": [
        {
          "internalType": "uint256",
          "name": "",
          "type": "uint256"
        }
      ],
      "stateMutability": "view",
      "type": "function"
    },
    {
      "inputs": [
        {
          "internalType": "address",
          "name": "",
          "type": "address"
        }
      ],
      "name": "lastCircuitBreaker",
      "outputs": [
        {
          "internalType": "uint256",
          "name": "",
          "type": "uint256"
        }
      ],
      "stateMutability": "view",
      "type": "function"
    },
    {
      "inputs": [],
      "name": "maxPriceChangePercent",
      "outputs": [
        {
          "internalType": "uint256",
          "name": "",
          "type": "uint256"
        }
      ],
      "stateMutability": "view",
      "type": "function"
    },
    {
      "inputs": [],
      "name": "maxSlippage",
      "outputs": [
        {
          "internalType": "uint256",
          "name": "",
          "type": "uint256"
        }
      ],
      "stateMutability": "view",
      "type": "function"
    },
    {
      "inputs": [],
      "name": "minLiquidityLock",
      "outputs": [
        {
          "internalType": "uint256",
          "name": "",
          "type": "uint256"
        }
      ],
      "stateMutability": "view",
      "type": "function"
    },
    {
      "inputs": [
        {
          "internalType": "address",
          "name": "",
          "type": "address"
        }
      ],
      "name": "orderBooks",
      "outputs": [
        {
          "internalType": "uint256",
          "name": "u",
          "type": "uint256"
        }
      ],
      "stateMutability": "view",
      "type": "function"
    },
    {
      "inputs": [],
      "name": "owner",
      "outputs": [
        {
          "internalType": "address",
          "name": "",
          "type": "address"
        }
      ],
      "stateMutability": "view",
      "type": "function"
    },
    {
      "inputs": [
        {
          "internalType": "address",
          "name": "creatorToken",
          "type": "address"
        }
      ],
      "name": "pausePool",
      "outputs": [],
      "stateMutability": "nonpayable",
      "type": "function"
    },
    {
      "inputs": [
        {
          "internalType": "address",
          "name": "",
          "type": "address"
        }
      ],
      "name": "pools",
      "outputs": [
        {
          "internalType": "address",
          "name": "creatorToken",
          "type": "address"
        },
        {
          "internalType": "uint256",
          "name": "filReserve",
          "type": "uint256"
        },
        {
          "internalType": "uint256",
          "name": "tokenReserve",
          "type": "uint256"
        },
        {
          "internalType": "uint256",
          "name": "totalLiquidity",
          "type": "uint256"
        },
        {
          "internalType": "uint256",
          "name": "liquidityLockUntil",
          "type": "uint256"
        },
        {
          "internalType": "bool",
          "name": "isActive",
          "type": "bool"
        }
      ],
      "stateMutability": "view",
      "type": "function"
    },
    {
      "inputs": [
        {
          "internalType": "address",
          "name": "creatorToken",
          "type": "address"
        },
        {
          "internalType": "uint256",
          "name": "liquidityAmount",
          "type": "uint256"
        }
      ],
      "name": "removeLiquidity",
      "outputs": [
        {
          "internalType": "uint256",
          "name": "filAmount",
          "type": "uint256"
        },
        {
          "internalType": "uint256",
          "name": "tokenAmount",
          "type": "uint256"
        }
      ],
      "stateMutability": "nonpayable",
      "type": "function"
    },
    {
      "inputs": [],
      "name": "renounceOwnership",
      "outputs": [],
      "stateMutability": "nonpayable",
      "type": "function"
    },
    {
      "inputs": [
        {
          "internalType": "address",
          "name": "creatorToken",
          "type": "address"
        },
        {
          "internalType": "uint256",
          "name": "tokenAmount",
          "type": "uint256"
        },
        {
          "internalType": "uint256",
          "name": "minFilOut",
          "type": "uint256"
        }
      ],
      "name": "sellTokens",
      "outputs": [
        {
          "internalType": "uint256",
          "name": "filOut",
          "type": "uint256"
        }
      ],
      "stateMutability": "nonpayable",
      "type": "function"
    },
    {
      "inputs": [
        {
          "internalType": "uint256",
          "name": "_fee",
          "type": "uint256"
        }
      ],
      "name": "setTradingFee",
      "outputs": [],
      "stateMutability": "nonpayable",
      "type": "function"
    },
    {
      "inputs": [],
      "name": "tradingFee",
      "outputs": [
        {
          "internalType": "uint256",
          "name": "",
          "type": "uint256"
        }
      ],
      "stateMutability": "view",
      "type": "function"
    },
    {
      "inputs": [
        {
          "internalType": "address",
          "name": "",
          "type": "address"
        }
      ],
      "name": "tradingMetrics",
      "outputs": [
        {
          "internalType": "uint256",
          "name": "volume24h",
          "type": "uint256"
        },
        {
          "internalType": "uint256",
          "name": "priceChange24h",
          "type": "uint256"
        },
        {
          "internalType": "uint256",
          "name": "lastPrice",
          "type": "uint256"
        },
        {
          "internalType": "uint256",
          "name": "allTimeHigh",
          "type": "uint256"
        },
        {
          "internalType": "uint256",
          "name": "allTimeLow",
          "type": "uint256"
        },
        {
          "internalType": "uint256",
          "name": "marketCap",
          "type": "uint256"
        }
      ],
      "stateMutability": "view",
      "type": "function"
    },
    {
      "inputs": [
        {
          "internalType": "address",
          "name": "newOwner",
          "type": "address"
        }
      ],
      "name": "transferOwnership",
      "outputs": [],
      "stateMutability": "nonpayable",
      "type": "function"
    },
    {
      "inputs": [
        {
          "internalType": "address",
          "name": "creatorToken",
          "type": "address"
        }
      ],
      "name": "unpausePool",
      "outputs": [],
      "stateMutability": "nonpayable",
      "type": "function"
    }
  ],
  "bytecode": "0x6080604052601e6006556101f460075562278d00600855611388600955610e10600a5534801561002d575f5ffd5b50604051611f5b380380611f5b83398101604081905261004c916100cf565b60015f556100593361007e565b600280546001600160a01b0319166001600160a01b03929092169190911790556100fc565b600180546001600160a01b038381166001600160a01b0319831681179093556040519116919082907f8be0079c531659141344cd1fd0a4f28419497f9722a3daafe3b4186f6b6457e0905f90a35050565b5f602082840312156100df575f5ffd5b81516001600160a01b03811681146100f5575f5ffd5b9392505050565b611e52806101095f395ff3fe608060405260043610610161575f3560e01c80638c04166f116100cd578063b0d54bcf11610087578063df4d927111610062578063df4d92711461050e578063e4e57b9e14610523578063f21c38cd14610542578063f2fde38b14610561575f5ffd5b8063b0d54bcf146104bb578063d1ca91c4146104da578063d99f6d67146104f9575f5ffd5b80638c04166f1461037a5780638da5cb5b1461038f5780639049f9d2146103ac5780639988ab1e146103db578063a201ccf6146103f0578063a4063dbc14610424575f5ffd5b806355776b771161011e57806355776b77146102c757806355aca1ec146102da57806356f43352146102fb578063715018a61461031057806384cc315b1461032457806388ed751214610343575f5ffd5b806301b56fb11461016557806306bfa938146101a65780630752881a146101ef5780630a94e2c214610202578063269310f81461022d57806338447bbf146102a8575b5f5ffd5b348015610170575f5ffd5b5061019361017f366004611bbf565b60056020525f908152604090206001015481565b6040519081526020015b60405180910390f35b3480156101b1575f5ffd5b506101c56101c0366004611bbf565b610580565b6040805195865260208601949094529284019190915260608301521515608082015260a00161019d565b6101936101fd366004611bda565b610605565b34801561020d575f5ffd5b5061019361021c366004611bbf565b600b6020525f908152604090205481565b348015610238575f5ffd5b5061027b610247366004611bbf565b600460208190525f918252604090912080546001820154600283015460038401549484015460059094015492949193909286565b604080519687526020870195909552938501929092526060840152608083015260a082015260c00161019d565b3480156102b3575f5ffd5b506101936102c2366004611bda565b6109a9565b6101936102d5366004611c04565b610a2e565b3480156102e5575f5ffd5b506102f96102f4366004611bbf565b610e10565b005b348015610306575f5ffd5b5061019360065481565b34801561031b575f5ffd5b506102f9610e3b565b34801561032f575f5ffd5b5061019361033e366004611bbf565b610e4e565b34801561034e575f5ffd5b50600254610362906001600160a01b031681565b6040516001600160a01b03909116815260200161019d565b348015610385575f5ffd5b5061019360075481565b34801561039a575f5ffd5b506001546001600160a01b0316610362565b3480156103b7575f5ffd5b506103cb6103c6366004611bbf565b610e9f565b604051901515815260200161019d565b3480156103e6575f5ffd5b5061019360085481565b3480156103fb575f5ffd5b5061040f61040a366004611bda565b61121e565b6040805192835260208301919091520161019d565b34801561042f575f5ffd5b5061048261043e366004611bbf565b600360208190525f91825260409091208054600182015460028301549383015460048401546005909401546001600160a01b03909316949193919290919060ff1686565b604080516001600160a01b03909716875260208701959095529385019290925260608401526080830152151560a082015260c00161019d565b3480156104c6575f5ffd5b506102f96104d5366004611c36565b6114aa565b3480156104e5575f5ffd5b506101936104f4366004611bda565b6114f8565b348015610504575f5ffd5b50610193600a5481565b348015610519575f5ffd5b5061019360095481565b34801561052e575f5ffd5b5061019361053d366004611c04565b61157d565b34801561054d575f5ffd5b506102f961055c366004611bbf565b6118a8565b34801561056c575f5ffd5b506102f961057b366004611bbf565b6118d6565b6001600160a01b0381165f908152600360205260408120600281015482918291829182916105ae575f6105db565b6105db81600201546105d5670de0b6b3a7640000846001015461194f90919063ffffffff16565b9061195a565b600182015460028301546003840154600590940154919a90995092975090955060ff169350915050565b5f61060e611965565b5f34116106525760405162461bcd60e51b815260206004820152600d60248201526c135d5cdd081cd95b9908119253609a1b60448201526064015b60405180910390fd5b6001600160a01b0383165f908152600360205260409020600581015460ff1661068d5760405162461bcd60e51b815260040161064990611c4d565b836001600160a01b03166353e23e2e6040518163ffffffff1660e01b8152600401602060405180830381865afa1580156106c9573d5f5f3e3d5ffd5b505050506040513d601f19601f820116820180604052508101906106ed9190611c8a565b1561070a5760405162461bcd60e51b815260040161064990611ca3565b600a546001600160a01b0385165f908152600b602052604090205461072e916119bc565b4210156107765760405162461bcd60e51b81526020600482015260166024820152754369726375697420627265616b65722061637469766560501b6044820152606401610649565b5f61079e6127106105d56107976006546127106119c790919063ffffffff16565b349061194f565b90506107ca6107ba8284600101546119bc90919063ffffffff16565b60028401546105d590849061194f565b92508383101561081c5760405162461bcd60e51b815260206004820152601a60248201527f496e73756666696369656e74206f757470757420616d6f756e740000000000006044820152606401610649565b8160020154831061083f5760405162461bcd60e51b815260040161064990611ccb565b5f61088361085a8585600201546119c790919063ffffffff16565b6105d5670de0b6b3a764000061087d3488600101546119bc90919063ffffffff16565b9061194f565b600184015490915061089590346119bc565b600184015560028301546108a990856119c7565b60028401556108b98682346119d2565b60405163a9059cbb60e01b8152336004820152602481018590526001600160a01b0387169063a9059cbb906044016020604051808303815f875af1158015610903573d5f5f3e3d5ffd5b505050506040513d601f19601f820116820180604052508101906109279190611c8a565b6109435760405162461bcd60e51b815260040161064990611cfb565b604080513481526020810186905260018183015260608101839052905133916001600160a01b038916917fe578d722830eae746cb307ce11dfb6dcd7c2b884f04e7756c6a85a60431e08249181900360800190a35050506109a360015f55565b92915050565b6001600160a01b0382165f908152600360205260408120600181015415806109d357506002810154155b156109e1575f9150506109a3565b5f610a096127106105d5610a026006546127106119c790919063ffffffff16565b879061194f565b9050610a256107ba8284600101546119bc90919063ffffffff16565b95945050505050565b5f610a37611965565b6001600160a01b0384165f908152600360205260409020600581015460ff16610a725760405162461bcd60e51b815260040161064990611c4d565b5f34118015610a8057505f84115b610abe5760405162461bcd60e51b815260206004820152600f60248201526e496e76616c696420616d6f756e747360881b6044820152606401610649565b600854831015610b105760405162461bcd60e51b815260206004820152601760248201527f4c6f636b206475726174696f6e20746f6f2073686f72740000000000000000006044820152606401610649565b6040516323b872dd60e01b8152336004820152306024820152604481018590526001600160a01b038616906323b872dd906064016020604051808303815f875af1158015610b60573d5f5f3e3d5ffd5b505050506040513d601f19601f82011682018060405250810190610b849190611c8a565b610ba05760405162461bcd60e51b815260040161064990611cfb565b80600301545f03610bc1573460018201819055600282018590559150610d54565b5f610be182600101546105d584600301543461194f90919063ffffffff16565b90505f610c0383600201546105d585600301548961194f90919063ffffffff16565b9050808210610c125780610c14565b815b93505f610c3684600301546105d586600101548861194f90919063ffffffff16565b90505f610c5885600301546105d587600201548961194f90919063ffffffff16565b905081341115610c9757336108fc610c7034856119c7565b6040518115909202915f818181858888f19350505050158015610c95573d5f5f3e3d5ffd5b505b80881115610d27576001600160a01b03891663a9059cbb33610cb98b856119c7565b6040516001600160e01b031960e085901b1681526001600160a01b03909216600483015260248201526044016020604051808303815f875af1158015610d01573d5f5f3e3d5ffd5b505050506040513d601f19601f82011682018060405250810190610d259190611c8a565b505b6001850154610d3690836119bc565b60018601556002850154610d4a90826119bc565b6002860155505050505b6003810154610d6390836119bc565b6003820155335f908152600682016020526040902054610d8390836119bc565b335f908152600683016020526040902055610d9e42846119bc565b335f8181526007840160209081526040918290209390935580513481529283018790528201849052906001600160a01b038716907f4a1a2a6176e9646d9e3157f7c2ab3c499f18337c0b0828cfb28e0a61de4a11f79060600160405180910390a350610e0960015f55565b9392505050565b610e18611b00565b6001600160a01b03165f908152600360205260409020600501805460ff19169055565b610e43611b00565b610e4c5f611b5a565b565b6001600160a01b0381165f90815260036020526040812060028101548203610e7857505f92915050565b610e0981600201546105d5670de0b6b3a7640000846001015461194f90919063ffffffff16565b6001600160a01b038181165f9081526003602052604081205490911615610ef65760405162461bcd60e51b815260206004820152600b60248201526a506f6f6c2065786973747360a81b6044820152606401610649565b816001600160a01b03166353e23e2e6040518163ffffffff1660e01b8152600401602060405180830381865afa158015610f32573d5f5f3e3d5ffd5b505050506040513d601f19601f82011682018060405250810190610f569190611c8a565b15610f735760405162461bcd60e51b815260040161064990611ca3565b5f5f5f60025f9054906101000a90046001600160a01b03166001600160a01b031663c4a2abd5866001600160a01b03166302d05d3f6040518163ffffffff1660e01b8152600401602060405180830381865afa158015610fd5573d5f5f3e3d5ffd5b505050506040513d601f19601f82011682018060405250810190610ff99190611d2a565b6040516001600160e01b031960e084901b1681526001600160a01b03909116600482015260240160a060405180830381865afa15801561103b573d5f5f3e3d5ffd5b505050506040513d601f19601f8201168201806040525081019061105f9190611d45565b9450505092509250846001600160a01b0316836001600160a01b0316146110c05760405162461bcd60e51b815260206004820152601560248201527424b73b30b634b21031b932b0ba37b9103a37b5b2b760591b6044820152606401610649565b5f82116111045760405162461bcd60e51b81526020600482015260126024820152714e6f20696e7472696e7369632076616c756560701b6044820152606401610649565b6001600160a01b0385165f81815260036020526040902080546001600160a01b0319169091178155600501805460ff1916600117905561114c82670de0b6b3a764000061195a565b6001600160a01b0386165f81815260046020818152604092839020600281018690556003810186905582019490945581516302d05d3f60e01b8152915192936302d05d3f9383830193919290918290030181865afa1580156111b0573d5f5f3e3d5ffd5b505050506040513d601f19601f820116820180604052508101906111d49190611d2a565b6001600160a01b0316856001600160a01b03167f4f2ce4e40f623ca765fc0167a25cb7842ceaafb8d82d3dec26ca0d0e0d2d489660405160405180910390a3506001949350505050565b5f5f611228611965565b6001600160a01b0384165f9081526003602052604090208361127d5760405162461bcd60e51b815260206004820152600e60248201526d125b9d985b1a5908185b5bdd5b9d60921b6044820152606401610649565b335f9081526006820160205260409020548411156112ad5760405162461bcd60e51b815260040161064990611ccb565b335f9081526007820160205260409020544210156113065760405162461bcd60e51b8152602060048201526016602482015275131a5c5d5a591a5d1e481cdd1a5b1b081b1bd8dad95960521b6044820152606401610649565b61132581600301546105d583600101548761194f90919063ffffffff16565b925061134681600301546105d583600201548761194f90919063ffffffff16565b335f90815260068301602052604090205490925061136490856119c7565b335f908152600683016020526040902055600381015461138490856119c7565b6003820155600181015461139890846119c7565b600182015560028101546113ac90836119c7565b6002820155604051339084156108fc029085905f818181858888f193505050501580156113db573d5f5f3e3d5ffd5b5060405163a9059cbb60e01b8152336004820152602481018390526001600160a01b0386169063a9059cbb906044016020604051808303815f875af1158015611426573d5f5f3e3d5ffd5b505050506040513d601f19601f8201168201806040525081019061144a9190611c8a565b50604080518481526020810184905290810185905233906001600160a01b038716907fbc7d19d505c7ec4db83f3b51f19fb98c4c8a99922e7839d1ee608dfbee29501b9060600160405180910390a3506114a360015f55565b9250929050565b6114b2611b00565b6103e88111156114f35760405162461bcd60e51b815260206004820152600c60248201526b08ccaca40e8dede40d0d2ced60a31b6044820152606401610649565b600655565b6001600160a01b0382165f9081526003602052604081206001810154158061152257506002810154155b15611530575f9150506109a3565b5f6115516127106105d5610a026006546127106119c790919063ffffffff16565b9050610a2561156d8284600201546119bc90919063ffffffff16565b60018401546105d590849061194f565b5f611586611965565b5f83116115c85760405162461bcd60e51b815260206004820152601060248201526f4d7573742073656e6420746f6b656e7360801b6044820152606401610649565b6001600160a01b0384165f908152600360205260409020600581015460ff166116035760405162461bcd60e51b815260040161064990611c4d565b846001600160a01b03166353e23e2e6040518163ffffffff1660e01b8152600401602060405180830381865afa15801561163f573d5f5f3e3d5ffd5b505050506040513d601f19601f820116820180604052508101906116639190611c8a565b156116805760405162461bcd60e51b815260040161064990611ca3565b6040516323b872dd60e01b8152336004820152306024820152604481018590526001600160a01b038616906323b872dd906064016020604051808303815f875af11580156116d0573d5f5f3e3d5ffd5b505050506040513d601f19601f820116820180604052508101906116f49190611c8a565b6117105760405162461bcd60e51b815260040161064990611cfb565b5f6117386127106105d56117316006546127106119c790919063ffffffff16565b889061194f565b905061175461156d8284600201546119bc90919063ffffffff16565b9250838310156117a65760405162461bcd60e51b815260206004820152601a60248201527f496e73756666696369656e74206f757470757420616d6f756e740000000000006044820152606401610649565b816001015483106117c95760405162461bcd60e51b815260040161064990611ccb565b60028201546117d890866119bc565b600283015560018201546117ec90846119c7565b6001830181905560028301545f9161181191906105d590670de0b6b3a764000061194f565b905061181e8782866119d2565b604051339085156108fc029086905f818181858888f19350505050158015611848573d5f5f3e3d5ffd5b5060408051858152602081018890525f8183015260608101839052905133916001600160a01b038a16917fe578d722830eae746cb307ce11dfb6dcd7c2b884f04e7756c6a85a60431e08249181900360800190a3505050610e0960015f55565b6118b0611b00565b6001600160a01b03165f908152600360205260409020600501805460ff19166001179055565b6118de611b00565b6001600160a01b0381166119435760405162461bcd60e51b815260206004820152602660248201527f4f776e61626c653a206e6577206f776e657220697320746865207a65726f206160448201526564647265737360d01b6064820152608401610649565b61194c81611b5a565b50565b5f610e098284611da9565b5f610e098284611dc0565b60025f54036119b65760405162461bcd60e51b815260206004820152601f60248201527f5265656e7472616e637947756172643a207265656e7472616e742063616c6c006044820152606401610649565b60025f55565b5f610e098284611ddf565b5f610e098284611df2565b6001600160a01b0383165f90815260046020526040902080546119f590836119bc565b8155600281015415611a495780600201548311611a2a576002810154611a25906105d561271061087d83886119c7565b611a43565b6002810154611a43906105d561271061087d87846119c7565b60018201555b600281018390556003810154831115611a6457600381018390555b8060040154831015611a7857600481018390555b5f846001600160a01b03166318160ddd6040518163ffffffff1660e01b8152600401602060405180830381865afa158015611ab5573d5f5f3e3d5ffd5b505050506040513d601f19601f82011682018060405250810190611ad99190611e05565b9050611af1670de0b6b3a76400006105d5868461194f565b82600501819055505050505050565b6001546001600160a01b03163314610e4c5760405162461bcd60e51b815260206004820181905260248201527f4f776e61626c653a2063616c6c6572206973206e6f7420746865206f776e65726044820152606401610649565b600180546001600160a01b038381166001600160a01b0319831681179093556040519116919082907f8be0079c531659141344cd1fd0a4f28419497f9722a3daafe3b4186f6b6457e0905f90a35050565b6001600160a01b038116811461194c575f5ffd5b5f60208284031215611bcf575f5ffd5b8135610e0981611bab565b5f5f60408385031215611beb575f5ffd5b8235611bf681611bab565b946020939093013593505050565b5f5f5f60608486031215611c16575f5ffd5b8335611c2181611bab565b95602085013595506040909401359392505050565b5f60208284031215611c46575f5ffd5b5035919050565b6020808252600f908201526e506f6f6c206e6f742061637469766560881b604082015260600190565b80518015158114611c85575f5ffd5b919050565b5f60208284031215611c9a575f5ffd5b610e0982611c76565b6020808252600e908201526d151c98591a5b99c81c185d5cd95960921b604082015260600190565b602080825260169082015275496e73756666696369656e74206c697175696469747960501b604082015260600190565b602080825260159082015274151bdad95b881d1c985b9cd9995c8819985a5b1959605a1b604082015260600190565b5f60208284031215611d3a575f5ffd5b8151610e0981611bab565b5f5f5f5f5f60a08688031215611d59575f5ffd5b8551611d6481611bab565b60208701516040880151606089015192975090955093509150611d8960808701611c76565b90509295509295909350565b634e487b7160e01b5f52601160045260245ffd5b80820281158282048414176109a3576109a3611d95565b5f82611dda57634e487b7160e01b5f52601260045260245ffd5b500490565b808201808211156109a3576109a3611d95565b818103818111156109a3576109a3611d95565b5f60208284031215611e15575f5ffd5b505191905056fea2646970667358221220bfb109377798919e48665bdef51bc62f562fe645beba0b21fb23ecb52f0bf6ae64736f6c634300081c0033",
  "linkReferences": {},
  "deployedLinkReferences": {},
  "immutableReferences": {},
  "inputSourceName": "project/contracts/IntegratedCreatorDEX.sol",
  "buildInfoId": "solc-0_8_28-02522704f2d7183b71da199d697048e5e7f5f01b"
}