{
  "_format": "hh3-artifact-1",
  "contractName": "TokenDeploymentFactory",
  "sourceName": "contracts/TokenDeploymentFactory.sol",
  "abi": [
    {
      "inputs": [],
      "stateMutability": "nonpayable",
      "type": "constructor"
    },
    {
      "anonymous": false,
      "inputs": [
        {
          "indexed": true,
          "internalType": "address",
          "name": "previousOwner",
          "type": "address"
        },
        {
          "indexed": true,
          "internalType": "address",
          "name": "newOwner",
          "type": "address"
        }
      ],
      "name": "OwnershipTransferred",
      "type": "event"
    },
    {
      "anonymous": false,
      "inputs": [
        {
          "indexed": true,
          "internalType": "address",
          "name": "creator",
          "type": "address"
        },
        {
          "indexed": true,
          "internalType": "address",
          "name": "tokenAddress",
          "type": "address"
        },
        {
          "indexed": false,
          "internalType": "string",
          "name": "name",
          "type": "string"
        },
        {
          "indexed": false,
          "internalType": "string",
          "name": "symbol",
          "type": "string"
        },
        {
          "indexed": false,
          "internalType": "uint256",
          "name": "initialSupply",
          "type": "uint256"
        },
        {
          "indexed": false,
          "internalType": "address",
          "name": "platformContract",
          "type": "address"
        }
      ],
      "name": "TokenDeployed",
      "type": "event"
    },
    {
      "inputs": [
        {
          "internalType": "uint256",
          "name": "",
          "type": "uint256"
        }
      ],
      "name": "allTokens",
      "outputs": [
        {
          "internalType": "address",
          "name": "",
          "type": "address"
        }
      ],
      "stateMutability": "view",
      "type": "function"
    },
    {
      "inputs": [
        {
          "internalType": "address",
          "name": "deployer",
          "type": "address"
        }
      ],
      "name": "authorizeDeployer",
      "outputs": [],
      "stateMutability": "nonpayable",
      "type": "function"
    },
    {
      "inputs": [
        {
          "internalType": "address",
          "name": "",
          "type": "address"
        }
      ],
      "name": "authorizedDeployers",
      "outputs": [
        {
          "internalType": "bool",
          "name": "",
          "type": "bool"
        }
      ],
      "stateMutability": "view",
      "type": "function"
    },
    {
      "inputs": [
        {
          "internalType": "address",
          "name": "",
          "type": "address"
        },
        {
          "internalType": "uint256",
          "name": "",
          "type": "uint256"
        }
      ],
      "name": "creatorTokens",
      "outputs": [
        {
          "internalType": "address",
          "name": "",
          "type": "address"
        }
      ],
      "stateMutability": "view",
      "type": "function"
    },
    {
      "inputs": [
        {
          "internalType": "address",
          "name": "creator",
          "type": "address"
        },
        {
          "internalType": "string",
          "name": "name",
          "type": "string"
        },
        {
          "internalType": "string",
          "name": "symbol",
          "type": "string"
        },
        {
          "internalType": "address",
          "name": "platformContract",
          "type": "address"
        },
        {
          "internalType": "uint256",
          "name": "initialSupply",
          "type": "uint256"
        }
      ],
      "name": "deployToken",
      "outputs": [
        {
          "internalType": "address",
          "name": "tokenAddress",
          "type": "address"
        }
      ],
      "stateMutability": "nonpayable",
      "type": "function"
    },
    {
      "inputs": [],
      "name": "getAllTokens",
      "outputs": [
        {
          "internalType": "address[]",
          "name": "",
          "type": "address[]"
        }
      ],
      "stateMutability": "view",
      "type": "function"
    },
    {
      "inputs": [
        {
          "internalType": "address",
          "name": "creator",
          "type": "address"
        }
      ],
      "name": "getCreatorTokens",
      "outputs": [
        {
          "internalType": "address[]",
          "name": "",
          "type": "address[]"
        }
      ],
      "stateMutability": "view",
      "type": "function"
    },
    {
      "inputs": [],
      "name": "getTotalTokensDeployed",
      "outputs": [
        {
          "internalType": "uint256",
          "name": "",
          "type": "uint256"
        }
      ],
      "stateMutability": "view",
      "type": "function"
    },
    {
      "inputs": [],
      "name": "owner",
      "outputs": [
        {
          "internalType": "address",
          "name": "",
          "type": "address"
        }
      ],
      "stateMutability": "view",
      "type": "function"
    },
    {
      "inputs": [],
      "name": "renounceOwnership",
      "outputs": [],
      "stateMutability": "nonpayable",
      "type": "function"
    },
    {
      "inputs": [
        {
          "internalType": "address",
          "name": "deployer",
          "type": "address"
        }
      ],
      "name": "revokeDeployer",
      "outputs": [],
      "stateMutability": "nonpayable",
      "type": "function"
    },
    {
      "inputs": [
        {
          "internalType": "address",
          "name": "newOwner",
          "type": "address"
        }
      ],
      "name": "transferOwnership",
      "outputs": [],
      "stateMutability": "nonpayable",
      "type": "function"
    }
  ],
  "bytecode": "0x6080604052348015600e575f5ffd5b50601633601a565b6069565b5f80546001600160a01b038381166001600160a01b0319831681178455604051919092169283917f8be0079c531659141344cd1fd0a4f28419497f9722a3daafe3b4186f6b6457e09190a35050565b61238e806100765f395ff3fe608060405234801561000f575f5ffd5b50600436106100b1575f3560e01c806374abfa541161006e57806374abfa541461013d5780638da5cb5b14610150578063ba2ae5ff14610160578063d42ab69c14610171578063db3fa4cc146101a3578063f2fde38b146101b6575f5ffd5b806323e01fec146100b55780632a5c792a146100e55780632e4934dd146100fa5780634930b3441461010f578063634282af14610122578063715018a614610135575b5f5ffd5b6100c86100c33660046106c1565b6101c9565b6040516001600160a01b0390911681526020015b60405180910390f35b6100ed610344565b6040516100dc919061074d565b61010d610108366004610798565b6103a4565b005b61010d61011d366004610798565b6103cc565b6100c86101303660046107b8565b6103f7565b61010d61041f565b6100ed61014b366004610798565b610432565b5f546001600160a01b03166100c8565b6002546040519081526020016100dc565b61019361017f366004610798565b60036020525f908152604090205460ff1681565b60405190151581526020016100dc565b6100c86101b13660046107cf565b6104a5565b61010d6101c4366004610798565b6104d9565b335f9081526003602052604081205460ff16806101ef57505f546001600160a01b031633145b6102405760405162461bcd60e51b815260206004820152601760248201527f4e6f7420617574686f72697a6564206465706c6f79657200000000000000000060448201526064015b60405180910390fd5b5f8585888686604051610252906105fa565b610260959493929190610825565b604051809103905ff080158015610279573d5f5f3e3d5ffd5b506001600160a01b038089165f8181526001602081815260408084208054808501825590855291842090910180549587166001600160a01b031996871681179091556002805493840181559093527f405787fa12a823e0f2b7631cc41b3ba8828b3321ca811111fa75cd3aa3bb5ace90910180549094168217909355915192945084935090917f35fabcfc819a5e4f2df3a5067f7284f591cbffd46eb2b9a555aca3cea3ece57590610332908a908a9089908b9061086e565b60405180910390a35095945050505050565b6060600280548060200260200160405190810160405280929190818152602001828054801561039a57602002820191905f5260205f20905b81546001600160a01b0316815260019091019060200180831161037c575b5050505050905090565b6103ac610552565b6001600160a01b03165f908152600360205260409020805460ff19169055565b6103d4610552565b6001600160a01b03165f908152600360205260409020805460ff19166001179055565b60028181548110610406575f80fd5b5f918252602090912001546001600160a01b0316905081565b610427610552565b6104305f6105ab565b565b6001600160a01b0381165f9081526001602090815260409182902080548351818402810184019094528084526060939283018282801561049957602002820191905f5260205f20905b81546001600160a01b0316815260019091019060200180831161047b575b50505050509050919050565b6001602052815f5260405f2081815481106104be575f80fd5b5f918252602090912001546001600160a01b03169150829050565b6104e1610552565b6001600160a01b0381166105465760405162461bcd60e51b815260206004820152602660248201527f4f776e61626c653a206e6577206f776e657220697320746865207a65726f206160448201526564647265737360d01b6064820152608401610237565b61054f816105ab565b50565b5f546001600160a01b031633146104305760405162461bcd60e51b815260206004820181905260248201527f4f776e61626c653a2063616c6c6572206973206e6f7420746865206f776e65726044820152606401610237565b5f80546001600160a01b038381166001600160a01b0319831681178455604051919092169283917f8be0079c531659141344cd1fd0a4f28419497f9722a3daafe3b4186f6b6457e09190a35050565b611aa4806108b583390190565b80356001600160a01b038116811461061d575f5ffd5b919050565b634e487b7160e01b5f52604160045260245ffd5b5f82601f830112610645575f5ffd5b813567ffffffffffffffff81111561065f5761065f610622565b604051601f8201601f19908116603f0116810167ffffffffffffffff8111828210171561068e5761068e610622565b6040528181528382016020018510156106a5575f5ffd5b816020850160208301375f918101602001919091529392505050565b5f5f5f5f5f60a086880312156106d5575f5ffd5b6106de86610607565b9450602086013567ffffffffffffffff8111156106f9575f5ffd5b61070588828901610636565b945050604086013567ffffffffffffffff811115610721575f5ffd5b61072d88828901610636565b93505061073c60608701610607565b949793965091946080013592915050565b602080825282518282018190525f918401906040840190835b8181101561078d5783516001600160a01b0316835260209384019390920191600101610766565b509095945050505050565b5f602082840312156107a8575f5ffd5b6107b182610607565b9392505050565b5f602082840312156107c8575f5ffd5b5035919050565b5f5f604083850312156107e0575f5ffd5b6107e983610607565b946020939093013593505050565b5f81518084528060208401602086015e5f602082860101526020601f19601f83011685010191505092915050565b60a081525f61083760a08301886107f7565b828103602084015261084981886107f7565b6001600160a01b03968716604085015294909516606083015250608001529392505050565b608081525f61088060808301876107f7565b828103602084015261089281876107f7565b604084019590955250506001600160a01b03919091166060909101529291505056fe608060405234801561000f575f5ffd5b50604051611aa4380380611aa483398101604081905261002e91610336565b8484600361003c8382610447565b5060046100498282610447565b5050600160055550600680546001600160a01b038086166001600160a01b0319928316179092556007805492851692909116919091179055610095836100908360046100b9565b6100cd565b6100af8261009060046100a985600361019a565b906100b9565b505050505061055e565b5f6100c48284610515565b90505b92915050565b6001600160a01b0382166101285760405162461bcd60e51b815260206004820152601f60248201527f45524332303a206d696e7420746f20746865207a65726f20616464726573730060448201526064015b60405180910390fd5b6101335f83836101a5565b8060025f8282546101449190610534565b90915550506001600160a01b0382165f81815260208181526040808320805486019055518481527fddf252ad1be2c89b69c2b068fc378daa952ba7f163c4a11628f55a4df523b3ef910160405180910390a35050565b5f6100c48284610547565b6006546001600160a01b038381169116148015906101d157506007546001600160a01b03838116911614155b80156101e557506001600160a01b03831615155b1561026e576101f860146100a960025490565b6102208261021a856001600160a01b03165f9081526020819052604090205490565b90610273565b111561026e5760405162461bcd60e51b815260206004820152601a60248201527f4d6178203525207065722077616c6c6574206578636565646564000000000000604482015260640161011f565b505050565b5f6100c48284610534565b634e487b7160e01b5f52604160045260245ffd5b5f82601f8301126102a1575f5ffd5b81516001600160401b038111156102ba576102ba61027e565b604051601f8201601f19908116603f011681016001600160401b03811182821017156102e8576102e861027e565b6040528181528382016020018510156102ff575f5ffd5b8160208501602083015e5f918101602001919091529392505050565b80516001600160a01b0381168114610331575f5ffd5b919050565b5f5f5f5f5f60a0868803121561034a575f5ffd5b85516001600160401b0381111561035f575f5ffd5b61036b88828901610292565b602088015190965090506001600160401b03811115610388575f5ffd5b61039488828901610292565b9450506103a36040870161031b565b92506103b16060870161031b565b9150608086015190509295509295909350565b600181811c908216806103d857607f821691505b6020821081036103f657634e487b7160e01b5f52602260045260245ffd5b50919050565b601f82111561026e57805f5260205f20601f840160051c810160208510156104215750805b601f840160051c820191505b81811015610440575f815560010161042d565b5050505050565b81516001600160401b038111156104605761046061027e565b6104748161046e84546103c4565b846103fc565b6020601f8211600181146104a6575f831561048f5750848201515b5f19600385901b1c1916600184901b178455610440565b5f84815260208120601f198516915b828110156104d557878501518255602094850194600190920191016104b5565b50848210156104f257868401515f19600387901b60f8161c191681555b50505050600190811b01905550565b634e487b7160e01b5f52601160045260245ffd5b5f8261052f57634e487b7160e01b5f52601260045260245ffd5b500490565b808201808211156100c7576100c7610501565b80820281158282048414176100c7576100c7610501565b6115398061056b5f395ff3fe60806040526004361061017b575f3560e01c8063456068d2116100cd578063a457c2d711610087578063dd62ed3e11610062578063dd62ed3e1461045b578063e6c228f21461047a578063f9859b5b146104a5578063fea08a8e146104d0575f5ffd5b8063a457c2d7146103f2578063a9059cbb14610411578063abe926ce14610430575f5ffd5b8063456068d21461034f57806353e23e2e14610363578063564f4f761461038357806359fde1e01461039757806370a08231146103aa57806395d89b41146103de575f5ffd5b8063162746951161013857806323b872dd1161011357806323b872dd146102d7578063313ce567146102f6578063395093511461031157806340c10f1914610330575f5ffd5b8063162746951461028557806318160ddd146102a457806320b6b2fc146102b8575f5ffd5b806302d05d3f1461017f57806303186eef146101bb57806306fdde03146101f4578063095ea7b3146102155780631031e36e14610244578063139ba7691461025a575b5f5ffd5b34801561018a575f5ffd5b5060065461019e906001600160a01b031681565b6040516001600160a01b0390911681526020015b60405180910390f35b3480156101c6575f5ffd5b506101e66101d5366004611333565b600b6020525f908152604090205481565b6040519081526020016101b2565b3480156101ff575f5ffd5b506102086104e5565b6040516101b2919061134c565b348015610220575f5ffd5b5061023461022f366004611381565b610575565b60405190151581526020016101b2565b34801561024f575f5ffd5b5061025861058e565b005b348015610265575f5ffd5b506101e6610274366004611333565b60096020525f908152604090205481565b348015610290575f5ffd5b5060075461019e906001600160a01b031681565b3480156102af575f5ffd5b506002546101e6565b3480156102c3575f5ffd5b506101e66102d2366004611333565b6105d6565b3480156102e2575f5ffd5b506102346102f13660046113a9565b610646565b348015610301575f5ffd5b50604051601281526020016101b2565b34801561031c575f5ffd5b5061023461032b366004611381565b610818565b34801561033b575f5ffd5b5061025861034a366004611381565b610839565b34801561035a575f5ffd5b50610258610871565b34801561036e575f5ffd5b5060075461023490600160a01b900460ff1681565b34801561038e575f5ffd5b506102586108aa565b6102586103a53660046113e3565b610a44565b3480156103b5575f5ffd5b506101e66103c4366004611333565b6001600160a01b03165f9081526020819052604090205490565b3480156103e9575f5ffd5b50610208610af8565b3480156103fd575f5ffd5b5061023461040c366004611381565b610b07565b34801561041c575f5ffd5b5061023461042b366004611381565b610b8c565b34801561043b575f5ffd5b506101e661044a366004611333565b600c6020525f908152604090205481565b348015610466575f5ffd5b506101e66104753660046113fa565b610d5f565b348015610485575f5ffd5b506101e6610494366004611333565b60086020525f908152604090205481565b3480156104b0575f5ffd5b506101e66104bf366004611333565b600d6020525f908152604090205481565b3480156104db575f5ffd5b506101e6600a5481565b6060600380546104f49061142b565b80601f01602080910402602001604051908101604052809291908181526020018280546105209061142b565b801561056b5780601f106105425761010080835404028352916020019161056b565b820191905f5260205f20905b81548152906001019060200180831161054e57829003601f168201915b5050505050905090565b5f33610582818585610d89565b60019150505b92915050565b6007546001600160a01b031633146105c15760405162461bcd60e51b81526004016105b890611463565b60405180910390fd5b6007805460ff60a01b1916600160a01b179055565b6001600160a01b0381165f908152602081815260408083205430845260089092528220548290610607908390610eac565b6001600160a01b0385165f9081526009602052604090205490915080821161063357505f949350505050565b61063d8282610ebe565b95945050505050565b6007545f90600160a01b900460ff16156106965760405162461bcd60e51b8152602060048201526011602482015270151c98591a5b99c81a5cc81c185d5cd959607a1b60448201526064016105b8565b335f908152600d602052604090205482906106b490620151806114a7565b42106106d957335f908152600c60209081526040808320839055600d90915290204290555b6106ed600a6106e760025490565b90610ec9565b335f908152600c60205260409020546107069083610ed4565b11156107545760405162461bcd60e51b815260206004820152601b60248201527f4461696c7920766f6c756d65206c696d6974206578636565646564000000000060448201526064016105b8565b61076260646106e760025490565b8111156107e557335f908152600b6020526040902054610784906138406114a7565b4210156107d35760405162461bcd60e51b815260206004820152601b60248201527f4c6172676520747261646520636f6f6c646f776e20616374697665000000000060448201526064016105b8565b335f908152600b602052604090204290555b335f908152600c60205260409020546107fe9082610ed4565b335f908152600c602052604090205561063d858585610edf565b5f3361058281858561082a8383610d5f565b61083491906114a7565b610d89565b6007546001600160a01b031633146108635760405162461bcd60e51b81526004016105b890611463565b61086d8282610ef7565b5050565b6007546001600160a01b0316331461089b5760405162461bcd60e51b81526004016105b890611463565b6007805460ff60a01b19169055565b6108b2610fbf565b335f90815260208190526040902054806108ff5760405162461bcd60e51b815260206004820152600e60248201526d139bc81d1bdad95b9cc81a195b1960921b60448201526064016105b8565b335f908152600960209081526040808320543084526008909252822054610932919061092c908590610eac565b90610ebe565b90505f81116109795760405162461bcd60e51b81526020600482015260136024820152724e6f20726576656e756520746f20636c61696d60681b60448201526064016105b8565b335f908152600960205260409020546109929082610ed4565b335f8181526009602052604080822093909355915183908381818185875af1925050503d805f81146109df576040519150601f19603f3d011682016040523d82523d5f602084013e6109e4565b606091505b5050905080610a355760405162461bcd60e51b815260206004820152601760248201527f526576656e7565207472616e73666572206661696c656400000000000000000060448201526064016105b8565b505050610a426001600555565b565b6007546001600160a01b03163314610a6e5760405162461bcd60e51b81526004016105b890611463565b5f3411610abd5760405162461bcd60e51b815260206004820152601860248201527f4e6f20726576656e756520746f2064697374726962757465000000000000000060448201526064016105b8565b305f90815260086020526040902054610ad69082610ed4565b305f90815260086020526040902055600a54610af29034610ed4565b600a5550565b6060600480546104f49061142b565b5f3381610b148286610d5f565b905083811015610b745760405162461bcd60e51b815260206004820152602560248201527f45524332303a2064656372656173656420616c6c6f77616e63652062656c6f77604482015264207a65726f60d81b60648201526084016105b8565b610b818286868403610d89565b506001949350505050565b6007545f90600160a01b900460ff1615610bdc5760405162461bcd60e51b8152602060048201526011602482015270151c98591a5b99c81a5cc81c185d5cd959607a1b60448201526064016105b8565b335f908152600d60205260409020548290610bfa90620151806114a7565b4210610c1f57335f908152600c60209081526040808320839055600d90915290204290555b610c2d600a6106e760025490565b335f908152600c6020526040902054610c469083610ed4565b1115610c945760405162461bcd60e51b815260206004820152601b60248201527f4461696c7920766f6c756d65206c696d6974206578636565646564000000000060448201526064016105b8565b610ca260646106e760025490565b811115610d2557335f908152600b6020526040902054610cc4906138406114a7565b421015610d135760405162461bcd60e51b815260206004820152601b60248201527f4c6172676520747261646520636f6f6c646f776e20616374697665000000000060448201526064016105b8565b335f908152600b602052604090204290555b335f908152600c6020526040902054610d3e9082610ed4565b335f908152600c6020526040902055610d578484611018565b949350505050565b6001600160a01b039182165f90815260016020908152604080832093909416825291909152205490565b6001600160a01b038316610deb5760405162461bcd60e51b8152602060048201526024808201527f45524332303a20617070726f76652066726f6d20746865207a65726f206164646044820152637265737360e01b60648201526084016105b8565b6001600160a01b038216610e4c5760405162461bcd60e51b815260206004820152602260248201527f45524332303a20617070726f766520746f20746865207a65726f206164647265604482015261737360f01b60648201526084016105b8565b6001600160a01b038381165f8181526001602090815260408083209487168084529482529182902085905590518481527f8c5be1e5ebec7d5bd14f71427d1e84f3dd0314c0f7b2291e5b200ac8c7c3b925910160405180910390a3505050565b5f610eb782846114ba565b9392505050565b5f610eb782846114d1565b5f610eb782846114e4565b5f610eb782846114a7565b5f33610eec858285611025565b610b8185858561109d565b6001600160a01b038216610f4d5760405162461bcd60e51b815260206004820152601f60248201527f45524332303a206d696e7420746f20746865207a65726f20616464726573730060448201526064016105b8565b610f585f838361124a565b8060025f828254610f6991906114a7565b90915550506001600160a01b0382165f81815260208181526040808320805486019055518481527fddf252ad1be2c89b69c2b068fc378daa952ba7f163c4a11628f55a4df523b3ef910160405180910390a35050565b6002600554036110115760405162461bcd60e51b815260206004820152601f60248201527f5265656e7472616e637947756172643a207265656e7472616e742063616c6c0060448201526064016105b8565b6002600555565b5f3361058281858561109d565b5f6110308484610d5f565b90505f198114611097578181101561108a5760405162461bcd60e51b815260206004820152601d60248201527f45524332303a20696e73756666696369656e7420616c6c6f77616e636500000060448201526064016105b8565b6110978484848403610d89565b50505050565b6001600160a01b0383166111015760405162461bcd60e51b815260206004820152602560248201527f45524332303a207472616e736665722066726f6d20746865207a65726f206164604482015264647265737360d81b60648201526084016105b8565b6001600160a01b0382166111635760405162461bcd60e51b815260206004820152602360248201527f45524332303a207472616e7366657220746f20746865207a65726f206164647260448201526265737360e81b60648201526084016105b8565b61116e83838361124a565b6001600160a01b0383165f90815260208190526040902054818110156111e55760405162461bcd60e51b815260206004820152602660248201527f45524332303a207472616e7366657220616d6f756e7420657863656564732062604482015265616c616e636560d01b60648201526084016105b8565b6001600160a01b038481165f81815260208181526040808320878703905593871680835291849020805487019055925185815290927fddf252ad1be2c89b69c2b068fc378daa952ba7f163c4a11628f55a4df523b3ef910160405180910390a3611097565b6006546001600160a01b0383811691161480159061127657506007546001600160a01b03838116911614155b801561128a57506001600160a01b03831615155b156113135761129d60146106e760025490565b6112c5826112bf856001600160a01b03165f9081526020819052604090205490565b90610ed4565b11156113135760405162461bcd60e51b815260206004820152601a60248201527f4d6178203525207065722077616c6c657420657863656564656400000000000060448201526064016105b8565b505050565b80356001600160a01b038116811461132e575f5ffd5b919050565b5f60208284031215611343575f5ffd5b610eb782611318565b602081525f82518060208401528060208501604085015e5f604082850101526040601f19601f83011684010191505092915050565b5f5f60408385031215611392575f5ffd5b61139b83611318565b946020939093013593505050565b5f5f5f606084860312156113bb575f5ffd5b6113c484611318565b92506113d260208501611318565b929592945050506040919091013590565b5f602082840312156113f3575f5ffd5b5035919050565b5f5f6040838503121561140b575f5ffd5b61141483611318565b915061142260208401611318565b90509250929050565b600181811c9082168061143f57607f821691505b60208210810361145d57634e487b7160e01b5f52602260045260245ffd5b50919050565b60208082526016908201527513db9b1e481c1b185d199bdc9b4818dbdb9d1c9858dd60521b604082015260600190565b634e487b7160e01b5f52601160045260245ffd5b8082018082111561058857610588611493565b808202811582820484141761058857610588611493565b8181038181111561058857610588611493565b5f826114fe57634e487b7160e01b5f52601260045260245ffd5b50049056fea2646970667358221220016242b8c51dc3bb6f8037eb850a456948765e41757ec87634ed321327e8a73264736f6c634300081c0033a264697066735822122087a5de8d260a133a2c12609604d8c494084362ee8b66bf284dc4d0bbbeb0714b64736f6c634300081c0033",
  "linkReferences": {},
  "deployedLinkReferences": {},
  "immutableReferences": {},
  "inputSourceName": "project/contracts/TokenDeploymentFactory.sol",
  "buildInfoId": "solc-0_8_28-14b9185082a805c74506c55bed80adf3e982d1cf"
}